:020000040800F2
:1000000000100020C5130008FF02000801030008CB
:1000100000000000000000000000000000000000E0
:1000200000000000000000000000000003030008C2
:10003000000000000000000005030008070300089E
:10004000151400080000000015140008151400081D
:1000500015140008151400081514000815140008DC
:1000600000000000151400081514000815140008FD
:1000700015140008151400081514000800000000ED
:10008000151400080000000000000000151400080E
:1000900000000000151400081514000815140008CD
:1000A00000000000151400080000000015140008EE
:1000B0000000000000000000000000000000000040
:1000C00010B5064C2378002B07D1054B002B02D02E
:1000D000044800E000BF0123237010BD0C00002085
:1000E0000000000070140008044B10B5002B03D072
:1000F0000349044800E000BF10BDC04600000000F6
:100100001000002070140008002243088B4274D3B2
:1001100003098B425FD3030A8B4244D3030B8B4208
:1001200028D3030C8B420DD3FF22090212BA030C11
:100130008B4202D31212090265D0030B8B4219D3F2
:1001400000E0090AC30B8B4201D3CB03C01A524112
:10015000830B8B4201D38B03C01A5241430B8B425A
:1001600001D34B03C01A5241030B8B4201D30B0343
:10017000C01A5241C30A8B4201D3CB02C01A52416A
:10018000830A8B4201D38B02C01A5241430A8B422D
:1001900001D34B02C01A5241030A8B4201D30B0216
:1001A000C01A5241CDD2C3098B4201D3CB01C01A30
:1001B000524183098B4201D38B01C01A524143093A
:1001C0008B4201D34B01C01A524103098B4201D328
:1001D0000B01C01A5241C3088B4201D3CB00C01A95
:1001E000524183088B4201D38B00C01A524143080D
:1001F0008B4201D34B00C01A5241411A00D2014632
:10020000524110467047FFE701B5002000F006F8A4
:1002100002BDC0460029F7D076E770477047C04658
:1002200082B00A4B59698020C003014359615A6961
:1002300002400092009A5A69802189020A435A6159
:100240005B690B400193019B02B0704700100240B4
:1002500010B50F480F4B036082235B0043600023FF
:100260008360C0229200C260036101224261802249
:1002700092008261E93AFF3AC2610362436283629B
:10028000113AC2620363436300F0A0FA10BDC04696
:10029000980000200030014030B591B018220021B4
:1002A00006A801F0DDF810220021684601F0D8F818
:1002B00001230493059302250C9580235B020D9383
:1002C00080235B030E9300240F9404A800F0DAFB54
:1002D000072300930195029403940121684600F0DE
:1002E00057FE11B030BD10B500F014FFFFF7D4FF7A
:1002F000FFF796FFFFF7ACFF00F0D6F8FCE770477A
:10030000FEE77047704710B500F014FF10BD000005
:1003100082B00A4B996901221143996199690A4097
:100320000092009ADA69802149050A43DA61DB69A3
:100330000B400193019B02B07047C0460010024081
:1003400010B588B004001422002103A801F088F839
:100350002268134B9A4201D008B010BD114B996925
:1003600080204001014399619A6902400192019AFB
:100370005A69802189020A435A615B690B400293E2
:10038000029BA02303939E3B049300230593032227
:1003900006920793902003A9C00500F0EFFEDBE76B
:1003A000003001400010024010B584B0002300224C
:1003B00004E00424224349000133DBB2072B05D8B3
:1003C000D2000C02F5D506242243F4E7140C01AB4D
:1003D0001C70140A5C709A700023002204E004244C
:1003E000224349000133DBB2072B05D8D2000C02AF
:1003F000F5D506242243F4E7140C01ABDC70140A93
:100400001C715A710023002204E004242243490095
:100410000133DBB2072B05D8D2000C02F5D5062438
:100420002243F4E7110C01AB9971110AD9711A72C8
:10043000002308E0C20012189A1801A9CC5C0449F4
:100440008C540133DBB2082BF4D904B010BDC04684
:10045000280000200904000208431043704710B52B
:100460000400080011001A00FFF7F4FF010020004B
:10047000FFF79AFF10BD000070B501256D42074CD3
:100480002B006C220649200000F006FA2B00022205
:100490000449200000F000FA70BDC046980000201A
:1004A000280000209400002070B5FF244DE02300B8
:1004B000220021000020FFF7D2FF230022002100AC
:1004C0000120FFF7CCFF2300220021000220FFF7CC
:1004D000C6FF2300220021000320FFF7C0FF2300F6
:1004E000220021000420FFF7BAFF23002200210090
:1004F0000520FFF7B4FF2300220021000620FFF7AC
:10050000AEFF2300220021000720FFF7A8FF2300F1
:10051000220021000820FFF7A2FF23002200210073
:100520000920FFF79CFF2300220021000A20FFF78B
:1005300096FF2300220021000B20FFF790FFFFF71A
:100540009BFF5A2000F008FE6408002CAFD1012563
:100550004FE0ECB22300220021000020FFF77FFFD4
:100560002300220021000120FFF779FF2300220051
:1005700021000220FFF773FF230022002100032047
:10058000FFF76DFF2300220021000420FFF767FF23
:100590002300220021000520FFF761FF2300220035
:1005A00021000620FFF75BFF230022002100072027
:1005B000FFF755FF2300220021000820FFF74FFF1F
:1005C0002300220021000920FFF749FF2300220019
:1005D00021000A20FFF743FF2300220021000B2007
:1005E000FFF73DFFFFF748FF5A2000F0B5FD6D0013
:1005F000ADB2FF2DADD970BDF0B5C64600B5070050
:100600000D0090461E003B689C682C40641B6342B2
:100610005C4144453BD0731CF5D000F097FD069B30
:10062000C01AB04201D2002EEDD13A685368E021E1
:100630008B43536082235B007A689A420CD08023FC
:100640009B01BA6A9A4216D05D230122FA54013BFB
:100650000022FA5403201BE0BB688022120293425E
:1006600003D08022D2009342E9D13A681368402136
:100670008B431360E3E73A68136807490B40136044
:100680003A68116880239B010B431360DCE700206C
:1006900004BC9046F0BDC046FFDFFFFFF8B5CE4674
:1006A000474680B581460E001700984602E0434653
:1006B00001330DD14B461D68AC683440BC424AD072
:1006C000C021C9008E42F2D1002FF0D12B7BEEE782
:1006D00000F03CFD089BC01A404502D24346002B67
:1006E000E8D14B461A685368E0218B43536082235C
:1006F0005B004A4652689A420ED080239B014A46CC
:10070000926A9A4219D05D2301224946CA54013B9C
:100710000022CA5403201FE04B469B68802212022D
:10072000934203D08022D2009342E6D14B461A680E
:10073000136840218B431360DFE74B461A68136848
:1007400007490B4013604B461A68116880239B01D0
:100750000B431360D7E700200CBC90469946F8BDC8
:10076000FFDFFFFF70B582B004000D001600C0214E
:1007700000922B0000224901FFF790FF002818D1BA
:1007800000962B00002280212000FFF735FF002873
:1007900016D1C02100962B000022C9002000FFF7CF
:1007A0007DFF00280AD0236E2022134323660320F6
:1007B00004E0236E202213432366032002B070BDA1
:1007C000236E2022134323660320F7E710B5041E8F
:1007D0005ED0002383625D33C35C002B4CD05D236D
:1007E0000222E2542268136840218B431360E368BD
:1007F000E022D200934245D90022F02109018B4228
:1008000005D0E021C9008B4201D00021A162216BFB
:10081000002905D1E021C9008B4236D90223236388
:100820006368A1680B4321690B4361690B43802115
:100830008900A06901400B43E1690B43216A0B4326
:100840002168A06A03430B60618B04230B40616A3B
:100850000B43616B0B43E1680B43216813434B600F
:100860002268D3690B490B40D361002323665D33B3
:100870000122E254002010BD5C330022C254FFF775
:100880005FFDACE780225201B7E701232363C7E78E
:100890000120F0E7FFF7FFFFF0B5CE4600B584B0CA
:1008A0000400019191461D005C23C35C012B00D123
:1008B000E5E05C230122C25400F048FC06005D2301
:1008C000E35CDFB2012B00D0C5E00199002900D123
:1008D000C2E04B46002B00D1BEE05D230322E25470
:1008E00000232366A1634A46A287E2872364442249
:1008F000A3520232A3522365E36480231B02A26841
:100900009A421ED023681A68520603D41A684021FE
:100910000A431A60E023DB00E2689A4236D9636832
:10092000002B02D04B46012B1DD12368A26B1288ED
:10093000DA60A36B0233A363E38F013B9BB2E387CF
:1009400011E0226811688023DB010B431360D9E7B3
:1009500000F0FCFB801BA84202D36B1C00D086E099
:10096000002D00D185E0E28F92B2002A5BD023688F
:100970009A689207ECD5A26B1288DA60A36B0233F7
:10098000A363E38F013B9BB2E387ECE76368002B33
:1009900002D04B46012B2FD1E38F9BB2012B0BD9F9
:1009A0002368A26B1288DA60A36B0233A363E38F20
:1009B000023B9BB2E3871FE0A36B1B782268137393
:1009C000A36B0133A363E38F013B9BB2E38713E087
:1009D000A36B1B781373A36B0133A363E38F013BFA
:1009E0009BB2E38708E000F0B1FB801BA84201D373
:1009F0006B1C40D1002D40D0E28F92B2002A12D061
:100A0000226893689B07EED5E38F9BB2012BDFD959
:100A1000A36B1B88D360A36B0233A363E38F023BFA
:100A20009BB2E387E8E7320029002000FFF79AFE37
:100A3000002801D020232366A368002B06D103934E
:100A40002368DA6803929B680393039B236E002B51
:100A500002D1002700E002275D230122E254013B7E
:100A60000022E254380004B004BC9146F0BD0327D4
:100A7000F2E70327F0E70327EEE70327ECE7022777
:100A8000F0E7000070B582B0041E00D12EE20368CA
:100A9000DB0726D5AE4B5A680C231340042B18D025
:100AA000AB4B5A680C231340082B0ED06368012B04
:100AB0003CD0002B51D1A64B1A68A6490A401A60B7
:100AC0001A68A5490A401A6036E0A14B5B68DB034F
:100AD000ECD59F4B1B689B0303D56368002B00D1AB
:100AE00007E223689B0772D5994B5B680C221A4278
:100AF0005DD0974B5A680C231340082B53D0E36802
:100B0000002B00D185E0924A136801210B4313604A
:100B100000F01CFB05008E4B1B689B0770D400F097
:100B200015FB401B0228F6D90320E0E1884A116832
:100B300080235B020B4313606368002B25D000F019
:100B400005FB0500824B1B689B03CAD400F0FEFA2C
:100B5000401B6428F6D90320C9E1052B09D07C4B42
:100B60001A687C490A401A601A687B490A401A6070
:100B7000E2E7774B19688022D2020A431A601968AB
:100B8000802252020A431A60D6E700F0DFFA05001D
:100B90006F4B1B689B03A4D500F0D8FA401B642858
:100BA000F6D90320A3E16A4B5B68DB03A7D4684B4B
:100BB0001B689B0703D5E368012B00D09BE16449C8
:100BC0000B68F82293432269D20013430B60236819
:100BD0001B0744D5E369002B2ED05D4A536A0121DF
:100BE0000B43536200F0B2FA0500594B5B6A9B0756
:100BF00035D400F0ABFA401B0228F6D9032076E189
:100C000053490B68F82293432269D20013430B60C7
:100C1000DDE74F4A136801218B43136000F096FA19
:100C200005004B4B1B689B07D1D500F08FFA401B8A
:100C30000228F6D903205AE1454A536A01218B4321
:100C4000536200F083FA0500414B5B6A9B0706D5AF
:100C500000F07CFA401B0228F6D9032047E1236804
:100C60005B0700D480E03A4BDB69DB000BD4384AE9
:100C7000D169802040050143D161D36903400193CC
:100C8000019B012500E00025344B1B68DB050ED5D8
:100C9000A368012B1FD0002B34D12D4B1A6A0121E0
:100CA0008A431A621A6A03318A431A6218E02B4A8D
:100CB000116880235B000B43136000F047FA0600C5
:100CC000264B1B68DB05E3D400F040FA801B642848
:100CD000F6D903200BE11E4A136A01210B4313626C
:100CE000A368002B24D000F031FA0600184B1B6AD1
:100CF0009B0737D400F02AFA801B194B9842F5D98C
:100D00000320F4E0052B09D0114B1A6A01218A4314
:100D10001A621A6A03318A431A62E1E70C4B1A6AB3
:100D200004210A431A621A6A03390A431A62D7E78E
:100D300000F00CFA0600064B1B6A9B0712D500F068
:100D400005FA801B064B9842F5D90320CFE0C04638
:100D500000100240FFFFFEFFFFFFFBFF007000409E
:100D600088130000012D33D02368DB0610D563699A
:100D7000012B33D0053351D1654A536B04218B438A
:100D80005363536BF4318B43A169C9000B43536325
:100D9000236A002B00D1B0E05D4A51680C220A4062
:100DA000082A00D18AE0022B4FD0594A13685949CA
:100DB0000B40136000F0CAF90400554B1B689B01FF
:100DC0007AD500F0C3F9001B0228F6D903208EE083
:100DD0004F4AD36950490B40D361C5E74C4B5A6B1E
:100DE00004210A435A635A6B03390A435A6300F0D9
:100DF000ADF90500464B5B6B9B0706D400F0A6F9E6
:100E0000401B0228F6D9032071E041494B6BF822C0
:100E10009343A269D20013434B63B9E73C4B5A6B2F
:100E200004210A435A635A6B03398A435A6300F018
:100E30008DF90500364B5B6B9B07A9D500F086F951
:100E4000401B0228F6D9032051E0314A136831498A
:100E50000B40136000F07AF905002D4B1B689B01D5
:100E600006D500F073F9401B0228F6D903203EE0B6
:100E7000274BDA6A0F218A43E16A0A43DA625A6829
:100E800026490A40A16A606A01430A435A60196808
:100E9000802252040A431A6000F058F904001C4BE7
:100EA0001B689B0106D400F051F9001B0228F6D9FB
:100EB00003201CE000201AE0002018E0012B1ED0C7
:100EC000134B5A68D96A80235B021340606A8342DD
:100ED00017D10F230B40E16A8B4214D1F0239B03FF
:100EE0001A40A36A9A4210D1002000E0012002B00B
:100EF00070BD0120FBE70120F9E70020F7E70120A2
:100F0000F5E70120F3E70120F1E70120EFE7C04614
:100F100000100240FFFFFFFEFFFFFFEFFFFFC2FFD9
:100F200010B588B004AA164B13CB13C21B6813600C
:100F30006A46144B13CB13C21B681360124B5A68DA
:100F40000C231340082B02D0104808B010BD910CA0
:100F50000733194004A8445C0B49C96A0B40694631
:100F6000C95CD30304D50948FFF7CEF86043ECE72A
:100F700063011B1B9801C01AC00000190002E4E7BE
:100F8000881400089C1400080010024000127A0027
:100F900070B504000D00002800D17EE0434B1A68B4
:100FA000012313408B420AD240490B68012293432C
:100FB0002B430B600B681A40AA4200D06FE02368F5
:100FC0009A070ED55B0705D5394A5168E023DB0047
:100FD0000B435360364A5368F0218B43A1680B439F
:100FE00053602368DB072DD56368012B1ED0022BCD
:100FF00022D02F4A1268920753D52D494A68032000
:10100000824313434B6000F0A1F80600284B5B6855
:101010000C221A4063689B009A4213D000F096F8A5
:10102000801B244B9842F1D9032035E0204A1268F6
:101030009203E2D401202FE01D4A12689201DCD411
:10104000012029E0194B1A6801231340AB4209D94A
:1010500016490B68012293432B430B600B681A401F
:10106000AA4220D123685B0706D5114A536812496A
:101070000B40E1680B435360FFF752FF0C4B5A687B
:1010800012090F2313400D4AD35CD8400C4B186053
:10109000002000F017F8002070BD0120FCE70120BF
:1010A000FAE70120F8E70120F6E7C04600200240F9
:1010B0000010024088130000FFF8FFFFB014000882
:1010C0000800002010B504000F4B1978FA208000AA
:1010D000FFF71AF801000D4B1868FFF715F800F03C
:1010E00053F900280DD1032C01D901200AE0013069
:1010F00000222100404200F017F9054B1C6000203F
:1011000000E0012010BDC0460000002008000020C3
:101110000400002010B5064A136810210B43136029
:101120000020FFF7CFFFFFF7F3F8002010BDC04607
:1011300000200240034A1168034B1B785B181360C0
:101140007047C046FC00002000000020014B1868DA
:101150007047C046FC00002070B50400FFF7F6FFA2
:101160000500631C02D0044B1B78E418FFF7EEFF68
:10117000401BA042FAD370BD00000020F0B5D64657
:101180004F464646C0B582B0002338E0032600E053
:101190000026A64034003C43023292005C4E94513B
:1011A0005C4A14684A46D24326004D46AE434D6819
:1011B000ED0302D54D462C432600564C266064684C
:1011C000260016404D68AD0302D54D462C4326003F
:1011D000504C6660A468260016404D68ED0202D5AA
:1011E0004D462C4326004B4CA660E46822404D68D7
:1011F000AD0201D54A462243464CE26001330C68F9
:101200002200DA407DD001229A4025001540A946EF
:101210001442F3D04C68022C01D0122C0ED1DC0801
:101220000834A400275807261E40B6000F25B540F5
:10123000AF430D69B5402E003E4326500468A446D6
:101240005E000324A2462700B740B846FF43654628
:101250004446A543AC464C68554625402C00B44056
:1012600065462C4304604C68651E012D03D9112C82
:1012700001D0122C13D184683C40A446CC68B44001
:1012800065462C4384604468944322004C682409DA
:10129000A446012465462C409C4014434460C26827
:1012A00017408A68B2403A43C2604A68D200A5D566
:1012B000194CA66901221643A661A4692240019235
:1012C000019A9A08941CA400114EA75903241C40AB
:1012D000A4000F26A640B7439026F605B04200D1E1
:1012E00056E70E4EB04208D00D4EB04207D00D4E1C
:1012F000B04200D14AE705264BE7012649E702261E
:1013000047E702B01CBC90469946A246F0BDC046D5
:1013100000000140000401400010024000040048A9
:1013200000080048000C004870B5002811DB830855
:10133000134EC0339B009D5903242040C000FF2260
:1013400014008440A54389010A4082402A439A51EF
:1013500070BD0F230340083B9B0806339B00094ADE
:10136000944663445C6803221040C000FC321500C0
:101370008540AC4389010A40824022435A60E7E736
:1013800000E100E000ED00E0013880235B049842BA
:101390000FD2094A50600948036A1B021B0AC02188
:1013A00009060B4303620023936007331360002098
:1013B00070470120FCE7C04610E000E000ED00E0CF
:1013C000704700000D4885460D480E490E4A00231F
:1013D00002E0D458C4500433C4188C42F9D30B4AE9
:1013E0000B4C002301E013600432A242FBD3FFF751
:1013F000E7FF00F011F8FEF776FFFEE7001000208F
:10140000000000200C000020C81400080C00002080
:1014100000010020FEE7000070B500260C4D0D4CC9
:10142000641BA410A64209D1002600F021F80A4D41
:101430000A4C641BA410A64205D170BDB300EB5842
:1014400098470136EEE7B300EB5898470136F2E7CC
:10145000C0140008C0140008C0140008C414000818
:1014600003008218934200D1704719700133F9E7E5
:10147000F8B5C046F8BC08BC9E467047F8B5C046F3
:08148000F8BC08BC9E46704751
:1014880002030405060708090A0B0C0D0E0F1010BD
:10149800000000000102030405060708090A0B0CF6
:1014A8000D0E0F10000000000000000000000000FA
:0814B800010203040607080904
:0414C000E900000837
:0414C400C10000085B
:0C14C800010000000400000000127A0087
:04000005080013C517
:00000001FF
